:020000040800F2
:10000000880500209D0100083B130008A512000888
:1000100039130008A90200080517000800000000B5
:100020000000000000000000000000003F13000876
:1000300069030008000000003D1300084113000898
:10004000B7010008B7010008B7010008B7010008B0
:10005000B7010008B7010008B7010008B7010008A0
:10006000B7010008B7010008B7010008B701000890
:10007000B7010008B7010008B7010008B701000880
:10008000B7010008B7010008B7010008B701000870
:10009000B7010008B7010008B7010008B701000860
:1000A000B7010008B7010008B7010008B701000850
:1000B000B7010008B7010008B7010008B701000840
:1000C000B7010008B7010008B7010008B701000830
:1000D000B7010008F9160008B7010008B7010008C9
:1000E000B7010008B7010008B7010008B701000810
:1000F000B7010008B7010008B7010008B701000800
:10010000B7010008B7010008B7010008B7010008EF
:10011000B7010008B7010008B7010008B7010008DF
:10012000B7010008B7010008AD020008B7010008D8
:10013000B70100080000000000000000B70100083F
:10014000B7010008B7010008B7010008B7010008AF
:10015000B7010008B7010008B9020008B70100089C
:10016000B7010008B7010008B7010008B70100088F
:10017000B7010008B70100080000000000000000FF
:10018000B7010008B7010008DFF80CD000F07AF8DA
:10019000004800475118000888050020064880479D
:1001A00006480047FEE7FEE7FEE7FEE7FEE7FEE75C
:1001B000FEE7FEE7FEE7FEE7B51300088901000849
:1001C0002DE9F05F0546002092469B46884606468C
:1001D000814640241BE0284641464746224600F01F
:1001E00041F853465A46C01A914110D31146184659
:1001F000224600F028F82D1A67EB01084F462246E8
:100200000120002100F01FF817EB00094E41201ECD
:10021000A4F10104DFDC484631462A464346BDE8E6
:10022000F09FD2B201E000F8012B491EFBD27047CB
:100230000022F6E710B513460A4604461946FFF7B2
:10024000F0FF204610BD202A04DB203A00FA02F11C
:10025000002070479140C2F1200320FA03F31943B4
:1002600090407047202A04DB203A21FA02F0002156
:10027000704721FA02F3D040C2F1200291400843B6
:1002800019467047064C074D06E0E06840F0010350
:1002900094E8070098471034AC42F6D3FFF778FF94
:1002A000B4180008D4180008FEE70000014800F068
:1002B0006FB80000C4000020014800F069B80000D9
:1002C0002401002001681823CAB2103AB2FBF3F2ED
:1002D000054B6FF30901032A9B5CC36500D9091D17
:1002E00081650846704700009418000810B5014663
:1002F00000208B698A6A4FF0C07453B1B3F5005F78
:1003000015D072B1012A0CD0022A0AD0032A09D1D1
:1003100004E01AB1012A06D0022A03D1C96AC90130
:1003200000D5012010BDC96AA142FAD010BD002A33
:10033000F7D0012AF2D0022AF3D0032AF3D010BD5D
:1003400030B50468256825F480252560046863605D
:100350008368402B036803D099600068C26030BD99
:100360009A600068C16030BD7047704790F83510E2
:10037000022903D08021416501207047052180F8C2
:1003800035100068016821F001010160002070470C
:100390002DE9F84304464FF00009CDF8009063487A
:1003A0004FF41651A56D0068B0FBF1F72E6894F874
:1003B0005C10082000FA01F131420FD021680A6870
:1003C00052070BD50A6822F004020A6094F85C1008
:1003D0008840A860606D40F00100606594F85C1092
:1003E0004FF0010808FA01F0304208D0216849694D
:1003F000090604D5A860606D40F00200606594F8BD
:100400005C1004208840304208D0216809688907C0
:1004100004D5A860606D40F00400606594F85C103D
:1004200010208840304218D021680968090714D587
:10043000A86020680168490304D50068000308D556
:10044000A16C07E00168C90503D4016821F0080127
:100450000160216C09B12046884794F85C10202087
:100460008840304231D021680968C9062DD5A8607E
:1004700094F8350005282068016806D0490347D55F
:10048000006800031DD4616C1CE021F016010160BE
:100490002068416921F080014161206C08B9A06C9D
:1004A00020B12068016821F00801016094F85C1017
:1004B0003F208840A86084F8349084F83580216D0E
:1004C0001FE0E16B09B120468847606D00282BD002
:1004D000606DC00714D0052084F8350020680168DD
:1004E00021F0010101600098401C0090B84203D83F
:1004F00020680068C007F6D184F8349084F835800D
:10050000E16C002910D001B02046BDE8F043084757
:100510000168C905D5D4016821F01001016084F893
:10052000349084F83580CCE7BDE8F88318000020CB
:100530002DE9F041044600F08BF906465CB1002538
:1005400084F83450022084F835002068016821F0D6
:10055000010101600DE00120BDE8F08100F078F9B3
:10056000801B052805D920206065032084F835000C
:10057000F2E720680068C007F0D1226811682048BF
:100580000140D4E901031843D4E903363343184347
:1005900063691843A3691843E3691843236A18433E
:1005A0000843616A042903D1D4E90B1319430843B2
:1005B000106020684069666A20F0070130460E43EB
:1005C000012704280CD1A06A0643E06A40B1204606
:1005D000FFF78CFE20B14020606584F83570BAE7E3
:1005E000206846612046FFF76DFE94F85C203F21AD
:1005F00091408160656584F835700020ACE70000AB
:100600003F8010F02DE9F0410446866D90F83400EB
:10061000002501280DD0012084F8340094F83570AD
:100620000020012F07D084F8340002252846BDE8B9
:10063000F0810220FBE7022784F8357060652046D0
:10064000FFF77EFE94F85C103F208840B060206881
:10065000016841F016010160206C20B1206801683A
:1006600041F0080101602068016841F0010101606A
:10067000DCE7000070B5044600F0EAF80546601CAF
:1006800002D004480078044400F0E2F8401BA04285
:10069000FAD370BD0C0000202DE9F84F00224FF076
:1006A000010803254FF00F0E0B6808FA02F42340EF
:1006B000A3426ED14E68012E05D0022E03D0112E1A
:1006C00001D0122E12D186684FEA420C05FA0CF7BF
:1006D000BE43CF6807FA0CF7374387604668A643E6
:1006E0000C79C4F30014944034434460C668570046
:1006F00005FA07FC8C6826EA0C06BC403443C4604B
:100700004C68022C01D0122C13D1D40800EB8404C5
:10071000A346D4F8209054074FEAD46A0EFA0AF69A
:1007200029EA06090E6906FA0AF646EA0906CBF82E
:10073000206006680C7926EA0C0604F00304BC402D
:10074000344304604C68E40065D5364C266846F4B2
:1007500080462660246822F0030604F48044009456
:10076000314C3444A446D4F808489607370F0EFAA3
:1007700007F6B4432D4EB04201D1002624E02C4EA2
:10078000B04201D101261FE02A4EB04202D102261A
:100790001AE040E0284EB04201D1032614E0274E73
:1007A000B04201D104260FE0254EB04201D105260A
:1007B0000AE0244EB04201D1062605E0224EB042A6
:1007C00001D1072600E00826BE402643CCF8086881
:1007D0001E4E34684F689C43FF0300D51C433460B1
:1007E0001A4C241D26684F689E43BF0300D51E4344
:1007F0002660164E083634684F689C43FF0200D5C9
:100800001C433460114E0C3634684F689C43BF0261
:1008100000D51C433460521C102AFFF445AFBDE8DC
:10082000F88F0000443802400030014000000240D0
:100830000004024000080240000C02400010024088
:100840000014024000180240001C0240003C01401D
:1008500001488068704700000C0000200248816851
:1008600002781144816070470C0000200B4810B5DD
:10087000016841F400710160016841F48061016028
:10088000016841F480710160032000F06FF80020DE
:1008900000F006F800F024F8002010BD003C0240F3
:1008A00070B50D4D04464FF47A712878B1FBF0F025
:1008B0000A490968B1FBF0F000F004FB48B9102CBC
:1008C00007D200222146501E00F030F800206C6054
:1008D00070BD012070BD00000C0000201800002039
:1008E0000A4808B5016841F480410160006800F4DD
:1008F000804000900548001F016841F08051016070
:10090000006800F08050009008BD000044380240AC
:10091000002809DB00F01F020121914040098000FE
:1009200000F1E020C0F8001170470000F0B40E4B59
:100930001B680C46C3F30223C3F10705042D00D93D
:100940000425191D072901D2002300E0DB1E012622
:1009500006FA05F1491E214099409E40761E164038
:100960003143F0BC00F0E0BE0CED00E0064900F0C1
:10097000070208684FF6FF03184040EA0220034AC6
:1009800010430860704700000CED00E00000FA051D
:100990002DE9F0470E46050065D0DFF81481D8F840
:1009A0000000F7B200F00F00B04207D288F80070E4
:1009B000D8F8000000F00F00B04254D128683D4C38
:1009C000810712D5400703D5206840F4E05020602D
:1009D0002878000703D5206840F460402060206834
:1009E000A96820F0F000084320602878C0072DD0C7
:1009F000304968680839012812D0022813D003282A
:100A000011D00968890700292DDA216821F0030136
:100A100001432160FFF71CFF814641F2883A0EE056
:100A200009688903EFE709688901ECE7FFF710FF20
:100A3000A0EB0901514502D90320BDE8F0872068E9
:100A4000696800F00C00B0EB810FEFD1D8F800100E
:100A5000404601F00F01B14207D90770006800F06D
:100A60000F00B04201D00120E7E72878400705D504
:100A70002068E96820F4E0500843206028780007E7
:100A800006D52068296920F4604040EAC100206052
:100A900000F038F82168084AC1F30311515CC840DE
:100AA0000649086006480068FFF7FAFE0020C4E720
:100AB000003C0240083802409C1800081800002042
:100AC000100000200448054900680968044AC1F381
:100AD0008221515CC840704718000020083802404D
:100AE000AC1800080448054900680968044AC1F3C5
:100AF0004231515CC840704718000020083802405D
:100B0000AC180008154810B5006810F00C02144825
:100B100013D01449042A0FD0082A0ED10F4C241FD9
:100B20002268236802F03F025B0207D52068C0F309
:100B30008810A0FB010106E0084610BD2168C1F342
:100B40008811A1FB00010023FFF73AFB2168C1F3E4
:100B50000141491C4900B0FBF1F010BD08380240CA
:100B60000024F40040787D012DE9F84F040076D090
:100B70002078DFF838A3CE4DC00749D0DAF800104E
:100B80005046C1F38101012908D00068C0F38100FB
:100B900002280AD1281D0068400206D52868800373
:100BA00036D560680028E2D032E06068B0F5803F5A
:100BB00010D0B0F5A02F286810D020F48030286025
:100BC000286820F4802028606068A0B1FFF740FE0C
:100BD00006460CE0286840F48030F4E740F48020BA
:100BE0002860F7E7FFF734FE801B642873D8286875
:100BF0008003F7D50CE0FFF72BFE064605E000BFAB
:100C0000FFF726FE801B6428F0D828688003F7D4FD
:100C10002078DFF8A08280074FF000093ED5DAF88F
:100C20000010504611F00C0F09D00068C0F381008D
:100C300002280BD19D48001F0068400206D4286896
:100C4000800715D5E068012809D111E0E068B8B146
:100C50000120C8F80000FFF7FBFD064605E020E193
:100C6000FFF7F6FD801B0228C0D828688007F7D55B
:100C70002868216920F0F80040EAC10028600DE0F2
:100C8000C8F80090FFF7E4FD064604E0FFF7E0FD3A
:100C9000801B02281FD828688007F7D42078000717
:100CA00022D5824E844861696C3671B101210160A0
:100CB000FFF7CEFD074604E0FFF7CAFDC01B022880
:100CC00009D830688007F7D50EE0C0F80090FFF72C
:100CD000BFFD074605E082E0FFF7BAFDC01B022812
:100CE0007DD830688007F7D42078400768D5DFF8D2
:100CF000BCB100270BF1380BDBF80000C0000BD4AF
:100D0000DBF8001041F08051CBF80010DBF8000058
:100D1000012700F080500090684E3068C00510D464
:100D2000306840F480703060FFF792FD009005E07D
:100D3000FFF78EFD0099401A022850D83068C00590
:100D4000F6D55A4EA068683601280FD005283068BD
:100D500010D020F001003060306820F004003060D6
:100D6000A068B8B1FFF774FD00900FE0306840F064
:100D70000100F4E740F004003060F7E7FFF768FD9A
:100D80000099411A41F28830814266D83068800764
:100D9000F4D50EE0FFF75CFD009007E0FFF758FD8B
:100DA0000099411A41F28830814256D83068800754
:100DB000F4D42FB1DBF8001021F08051CBF80010F3
:100DC000A069D0B3DAF800205146C2F38102022AAA
:100DD0004AD00228484607D0C8F8600000E03CE04E
:100DE000FFF736FD04463BE04746C8F86000FFF7D2
:100DF0002FFD064605E000BFFFF72AFD801B0228F5
:100E00002BD828688001F7D4D4E907010843A16AE8
:100E10002B4A490802EB0141626A41EA8211084308
:100E200094F82C1040EA01612048001F0160012065
:100E30003866FFF70DFD044605E034E0FFF708FDD6
:100E4000001B022809D828688001F7D52BE000BFD5
:100E5000FFF7FEFC001B022802D90320BDE8F88F33
:100E600028688001F4D41EE00128F7D00868E26900
:100E700000F48001914214D1226A00F03F019142B6
:100E80000FD147F6C071626A0140914209D1A26A4E
:100E900000F44031914204D1E16A00F07060884270
:100EA00001D00120DAE70020D8E70000083802402E
:100EB0000038024000004742800E47420070004068
:100EC0000000FFFF10B5401EB0F1807F01D301206C
:100ED00010BD4FF0E02460610F21601700F024FC8A
:100EE0000020A06107202061002010BD7047000095
:100EF00070B5026804461068D168536910F00F0F8E
:100F000052D003F0010501F490762E435FD0C20762
:100F100005D0CA0503D5E26B42F00102E263420745
:100F200005D5DA0703D0E26B42F00202E2638207E2
:100F300005D5DA0703D0E26B42F00402E263020750
:100F400007D501F020022A4303D0E26B42F00802E9
:100F5000E263E26B002A33D0800604D5880602D50E
:100F6000204600F0B8FA20684069E16BC0F38010B9
:100F7000090700D428B3204600F096FA206841699A
:100F800049061AD5416921F040014161606BA0B169
:100F90001B490165606BFFF7E9F9002810D0606B11
:100FA000016DBDE870400847830610D58B060ED54D
:100FB0002046BDE8704000F08EBA2046FFF796FF4D
:100FC00070BD2046FFF792FF0020E06370BD03066E
:100FD00006D50B0604D52046BDE8704000F05ABB8C
:100FE0004006F3D54806F1D5D168204621F04001EE
:100FF000D160202184F8391000F052F970BD000052
:10100000D113000870B5040004D094F8390000250D
:1010100010B106E0012070BD84F83850204600F081
:1010200023F8242084F839002068C16821F4005195
:10103000C160204600F09AFA2068016921F49041CD
:1010400001612068416921F02A0141612068C1687D
:1010500041F40051C160E563202084F8390084F830
:101060003A00002070BD00002DE9F04186B0064630
:1010700014216846FFF7DCF83049306888425AD1BD
:101080002F480024016841F010010160006800F061
:10109000100005902A481438016841F001010160F0
:1010A0000068694600F0010005904FF4C0600090B0
:1010B0000220CDE901040320039007200490214879
:1010C000FFF7EAFA214D20484FF000672860C5E994
:1010D00001744FF48068C5E9034880156C61C5E967
:1010E00006402C6228466C62FFF722FA08B1FFF72F
:1010F0003CF97563AE63154D134860357830E5E80B
:1011000002074020A5E81101104845F81449603055
:10111000AC61EC612C626C62FFF70AFA08B1FFF770
:1011200024F93563002211462520AE63FFF7FEFB4C
:101130002520FFF7EDFB06B0BDE8F081001001406F
:10114000443802400000024040640240C4000020D5
:10115000F8B5044690F83A0020283CD1C1B3BAB3A0
:1011600094F83800012836D0012084F83800A162B4
:10117000A2850025E563222084F83A00636B1748B6
:10118000D863636B16481864636B1648D864606B49
:10119000134605650846666B216802463046091D00
:1011A000FFF730FA206801684168009184F83850F0
:1011B000C16841F48071C1602068416941F001015A
:1011C00041612068416941F0400141610020F8BD62
:1011D000FFE70120FBE70220F9E700002B140008DD
:1011E00067140008E113000810B50649884208D1C9
:1011F00005A000F089FABDE81040064906A000F0FD
:1012000083BA10BD8400002072785F6275666665DF
:10121000723D000020000020257300007047000090
:1012200070B5044690F83900202830D169B362B314
:1012300094F8380001282AD0012084F8380021626F
:10124000A284E2840025E563212084F83900236B21
:101250001048D863236B10481864236B0F48D86478
:10126000206B134605652668206B321DFFF7CAF90F
:1012700021686FF04000086084F8385020684169A8
:1012800041F080014161002070BD012070BD02204D
:1012900070BD0000711400089F140008E1130008DD
:1012A00070477047FEE700000D4808B5016841F43B
:1012B000800101600068002200F480000090114667
:1012C0003A20FFF733FB3A20FFF722FB00221146BA
:1012D0004620FFF72BFBBDE808404620FFF718BB70
:1012E00030380240054808B5016841F0010101604D
:1012F000006800F00100009008BD00003038024096
:101300000C4810B50A4901604FF4E13141600021F9
:1013100081600C22C160C0E904128161C161FFF7E4
:1013200071FE002803D0BDE81040FFF71EB810BDC5
:101330000010014084000020FEE7704770477047AE
:10134000FFF78CBA10B592B030216846FEF770FFF7
:1013500014210CA8FEF76CFF14480024016841F02A
:1013600080510160006800F08050119010480168C1
:1013700041F4804101600068069400F480401190BF
:101380000220009001200390102004906846FFF78F
:10139000EBFB0F20CDE90C040E940F9400210CA858
:1013A0001094FFF7F5FA12B010BD0000403802406B
:1013B000007000400548016841F470010160034974
:1013C0004FF00060803908607047000088ED00E051
:1013D00010B5806B0021C185C184FFF787FD10BD6A
:1013E00070B5846B2068406994F83910C0F3C01060
:1013F0000025212904D118B1E584204600F062F8C7
:101400002068406994F83A10C0F38010222904D172
:1014100018B1E585204600F047F8E06B40F0100079
:10142000E0632046FFF762FD70BD10B50146806B9A
:1014300009680968C90513D40021C1850168CA6813
:1014400022F48072CA6001684A6922F001024A618E
:1014500001684A6922F040024A61202180F83A106E
:10146000FFF7C2FE10BD10B5806BFFF7D7FE10BDB1
:1014700010B50146806B09680968C9050CD40021C4
:10148000C18401684A6922F080024A610068C1682B
:1014900041F04001C16010BDFFF702FF10BD10B563
:1014A000806BFFF7FEFE10BD0168CA6822F49072DF
:1014B000CA6001684A6922F001024A61202180F86D
:1014C0003A1070470168CA6822F0C002CA60202141
:1014D00080F83910704710B590F83A10222901D0E1
:1014E000022010BD8168B1F5805F11D0016900292B
:1014F00001681FD0496801F07F03816A4A1C82623B
:101500000B70C18D491E0904090CC18518D02BE050
:101510000269816A002A0268526805D0D2B20A8044
:10152000816A491C8162ECE7C2F308020A80816A81
:10153000891CF7E74A68816A4B1C83620A70E0E7FE
:101540000168CA6822F02002CA600168CA6822F4F1
:101550008072CA6001684A6922F001024A61202152
:1015600080F83A10FFF740FE002010BD2DE9F04151
:10157000044600680169E26821F4405111430161A9
:101580002169A068E2690843616911430843216841
:10159000CA6849F20C639A430243CA6020684169F1
:1015A000A26921F4407111434161E0691927642562
:1015B0003226B0F5004F354A354920684FF0000813
:1015C00006D0884201D0904236D1FFF78BFA35E041
:1015D000884201D0904202D1FFF784FA01E0FFF780
:1015E00071FA61684A18A0FB070148EB0803FEF78F
:1015F000E7FD0146B0FBF5F00201B1FBF5F06FF03D
:101600001803584301EB800006EBC000B0FBF5F077
:1016100000F0F80002EB4002B1FBF5F0584301EB9B
:10162000800006EBC000B0FBF5F000F00700216879
:1016300010448860BDE8F081FFF744FA61688B0FC1
:101640008A00A0FB0701FEF7BBFD0146B0FBF5F0E9
:101650006FF01802504301EB800006EB0010B0FB66
:10166000F5F000F0F002B1FBF5F002EB0012B1FB77
:10167000F5F06FF01803584301EB800006EB001003
:10168000B0FBF5F000F00F00D1E7000000140140BE
:101690000010014090F83910212901D00220704734
:1016A0008168B1F5805F016A0BD04A1C0262026852
:1016B00009785160C18C491E0904090CC1840ED0FF
:1016C00017E009880268C1F3080151600169002927
:1016D000016A02D0491C0162ECE7891CFBE7016842
:1016E000CA6822F08002CA600068C16841F0400107
:1016F000C1600020704700000148FFF7F9BB0000FF
:1017000084000020FEE700000FB4054B10B503A9CC
:10171000044A029800F027F810BC5DF814FB0000A2
:101720003D1800081C0000200907090E002804DBF2
:1017300000F1E02080F80014704700F00F0000F185
:10174000E02080F8141D704702E008C8121F08C18D
:10175000002AFAD170477047002001E001C1121F32
:10176000002AFBD170472DE9F84F994692468846EA
:101770000546002706E025280AD051464A469047EC
:101780006D1C7F1C28780028F5D13846BDE8F88FFD
:10179000002315F8011F18462E2915D115F8011F31
:1017A00004232A290DD06FF02F022978A1F13004EB
:1017B000092C09D800EB800002EB400008446D1CA6
:1017C000F3E758F8040B6D1C2A78002ADDD0632A51
:1017D00007D0732A0FD0104651464A4690477F1CC7
:1017E0002AE018F8042B8DF8002000218DF8011054
:1017F0006E46012103E058F8046B4FF0FF315A07A1
:101800004FF0000401D409E0641C84420BDA8C42DE
:10181000FADB325D002AF7D105E0641C8C42FCDB68
:10182000305D0028F9D1274404E016F8010B514639
:101830004A469047641EF8D26D1CA3E738B50446AB
:101840008DF8000069460320ABBE204638BD00007D
:10185000FFF70CF8FFF776FDFFF744FDFFF724FDD7
:10186000FFF74EFD0848094902780948FFF770FC68
:1018700042F2107404490922491C0548FFF7D0FCC4
:101880002046FEF7F7FEF5E70000002020000020CC
:10189000840000200006101600061016000000004C
:1018A0000000000001020304060708090000000010
:1018B00001020304D41800080000002020000000EA
:1018C00048170008F41800082000002068050000F0
:1018D00058170008645374616E6420627900000038
:1018E0000100000010000000000000000024F400CF
:0418F00000000000F4
:040000050800018965
:00000001FF
